:020000040800F2
:10000000A00D0020C1010008173D00080F350008B1
:10001000153D00089F150008594200080000000027
:10002000000000000000000000000000694000081F
:10003000A115000800000000393D00086B400008D1
:10004000DB010008DB010008DB0100087D3E000841
:10005000DB010008DB010008DB010008DB01000810
:10006000DB010008DB010008DB010008DB01000800
:10007000DB010008DB010008DB010008DB010008F0
:10008000DB010008DB010008DB010008DB010008E0
:10009000DB010008DB010008DB010008DB010008D0
:1000A000DB010008D9400008DB010008DB01000883
:1000B000DB010008DB010008DB010008DB010008B0
:1000C000DB010008DB010008DB010008DB010008A0
:1000D000DB010008DB010008DB010008DB01000890
:1000E000DB010008DB010008DB01000800F002F87A
:1000F00000F056F80AA090E8000C82448344AAF16C
:100100000107DA4501D100F04BF8AFF2090EBAE869
:100110000F0013F0010F18BFFB1A43F0010318473B
:10012000B8AF0000D8AF0000103A24BF78C878C13B
:10013000FAD8520724BF30C830C144BF04680C60ED
:10014000704700000023002400250026103A28BF35
:1001500078C1FBD8520728BF30C148BF0B60704739
:10016000662908F0DA81692900F0C280642900F06C
:10017000BF80752900F0BC80782900F0F5807329D4
:1001800000F0CB84002070471FB500F0CBFC0400CA
:100190000020002107F0CCFEE0601FBD10B510BDAF
:1001A00000F0C0FD1146FFF7EFFF06F0D9FF00F0A9
:1001B000DEFD03B4FFF7F2FF03BC00F021FE0000F8
:1001C0000948804709480047FEE7FEE7FEE7FEE7EB
:1001D000FEE7FEE7FEE7FEE7FEE7FEE70448054927
:1001E000054A064B70470000D7400008ED000008A4
:1001F000A0070020A00D0020A0090020A0090020D9
:10020000B2F120030AD5C2F1200320FA02F001FA6C
:1002100003F321FA02F140EA0300704721FA03F0E8
:100220004FF00001704700000FB41CB5074B06AA41
:100230007B4469460090059800F045FC0020694623
:1002400000F054FC1CBC5DF814FB0000B908000071
:1002500070B5044685690068C10601D5302600E006
:100260002026C00707D070BDD4E901213046904751
:10027000206A401C20626D1EF6D570BD70B5044624
:1002800085690078C00707D170BDD4E9012120201D
:100290009047206A401C20626D1EF6D570BD70B577
:1002A0000C460546012A05D02878800600D5EA6963
:1002B000002302E0012305E05B1C934202D2E05CD4
:1002C0000028F9D1A869E618C01AA861286A18445C
:1002D00028622846FFF7BCFF04E0D5E9012114F8A5
:1002E000010B9047B442F8D32846FFF7C7FF70BD13
:1002F0002DE9F0410646002410687529314616A5FF
:1003000010D0AFF30080002802DA404213A507E0C6
:1003100031688A0701D512A502E0490704D511A565
:10032000012401E0AFF3008000210A2206F1240736
:1003300009E0B0FBF2FCB0FBF2F302FB1C00303032
:1003400078541846491C0028F3D123462A463046E3
:10035000BDE8F04100F049B9000000002D000000A8
:100360002B0000002000000070B504460D46214619
:100370001068AFF300802188090502D50F4A7A443E
:1003800002E00E4A7A440E32002104F1240305E013
:1003900000F00F060009965D5E54491C0028F7D155
:1003A00020780023000704D5702D02D009B1022364
:1003B00011322046BDE8704000F017B992AB000042
:1003C0002DE9F05F894604464FF0000ADFF824B1BA
:1003D000FB44C0F820A02046E168884700287DD073
:1003E000252806D0D4E901219047206A401C2062CC
:1003F000F1E700255F462046E16888472028064649
:1004000007DB312E05D2B81910F8200C08B10543CE
:10041000F1E7A80701D525F00405C4F81CA00027C2
:10042000C4F818A02A2E09D0304604F01FF838B3BB
:1004300004EB8708303EC8F8186019E059F8041B2F
:10044000204604EB87029161E1688847012F064648
:1004500018D1E069002820DA25F020051DE0D8F841
:10046000180000EB800006EB40003038C8F8180098
:100470002046E1688847064603F0F8FF0028EED1E1
:10048000012F0AD02E2E08D12046E16888477F1C14
:100490000646022F45F02005C4DBA069002803DAD8
:1004A000404245F00105A061E80701D025F01005A4
:1004B000A6B1A6F14100192802D8203645F40065FE
:1004C0004A463146204625604D46FFF749FE60B159
:1004D000012807D0ED1D25F0070000E007E000F13E
:1004E000080978E705F1040975E730467AE7206ADC
:1004F000BDE8F09F68AB000040EA0103024630B55A
:100500009B0710D14FF0013400E008C208C91D1B41
:100510009D4315EAC41FF8D013F0FF0102F8011B38
:100520000DD01B0AF8E711F8013B002B02F8013B44
:1005300005D011F8013B002B02F8013BF3D130BD8F
:1005400010B5431C02E010F8011B71B18107FAD10C
:100550004FF0013202C88C1A8C4314EAC211F9D050
:10056000C01A0A0603D0C01E10BDC01A10BD0A046E
:1005700001D0801E10BD0902FCD0401E10BD421EDD
:1005800012F8013F002BFBD111F8013B002B02F8C0
:10059000013BF9D170474FF0000200B51346944675
:1005A0009646203922BFA0E80C50A0E80C50B1F1CB
:1005B0002001BFF4F7AF090728BFA0E80C5048BFDF
:1005C0000CC05DF804EB890028BF40F8042B08BF7D
:1005D000704748BF20F8022B11F0804F18BF00F879
:1005E000012B70477047704770472DE9F0470D4663
:1005F00099469246044600F124080168880604D50D
:10060000E06921F01001216000E00120A84201DD35
:10061000471B00E00027A1697A1902EB0900081ABC
:10062000A0612078C00602D42046FFF711FE002604
:1006300008E0D4E901211AF806009047206A401C1E
:10064000761C20624E45F4DB2078C0060AD5204691
:10065000FFF7FEFD06E0D4E9012130209047206A33
:10066000401C2062381EA7F10107F4DC07E0D4E942
:10067000012118F805009047206A401C2062281EBE
:10068000A5F10105F3DC2046FFF7F8FD2078000610
:1006900002D50220BDE8F0870120FBE770472DE975
:1006A000FF4F0C461E464FF0FF378BB0D2E90001DA
:1006B000DDF860800A908A46C1F30A5505B93D46C7
:1006C000002108464FF00000BAF1000F00F440008E
:1006D00005DA00EB80004FF4400101EA50004FEAD8
:1006E0009059B9F1010F00DDB9460A9850EA4A0065
:1006F0000ED044F61050A5F2FF3545432F14B8F143
:10070000000F1ED07542291E1EDDC9F100021CE03B
:10071000B8F1010F4FF0000001D0302103E0F243A7
:1007200005E02154401CB042FBDB30460022002192
:1007300021540B99C1F80880C1E900200FB0BDE831
:10074000F08FBD1B6D1CDEE74A4600DA694206A841
:1007500000F072FA06AB93E8070003AB83E80700EA
:1007600050460A9900F053FB8DE80700A0F50050B1
:100770001F3800900398002D0ADD42F21F014A46FF
:100780000844002303A90390684600F0BCFD09E07B
:10079000A0F500504A461F38002303A9039068467D
:1007A00000F0C6FD8DE807000004000C03D04FF0F8
:1007B000FF30410800E01046B8F1000F03D00022DE
:1007C000009215461EE0751E05D400F0AFF93032D8
:1007D00062556D1EF9D5B3460122084302D00022AE
:1007E0007F1C04E02078302801D100227F1E002ADF
:1007F000099784D01DE0112D07DA00F097F9303207
:1008000062556D1C50EA0102F5D1084302D00098F0
:10081000C8B10EE00021681E05E0235C625C6354F1
:100820002254401E491C8142F7DBAB46A81B401EE8
:100830000990002004F80B000B98099AC0F8088072
:10084000C0E9002B7AE711264FF0000857E72DE9A1
:10085000F04F88460446D21D22F0070191B0D1E93D
:100860000001CDE90A0103F0DDFD02460B98C00F3F
:1008700001D02D2007E02068810701D52B2002E060
:10088000202101EAC000032A099001D0072A05DBD4
:1008900003464146204600F08FF90BE120788006A0
:1008A00001D5E06900E00620B8F1650F814606D069
:1008B000B8F1660F18D0B8F1670F70D131E00020A1
:1008C000B9F1110F009001DB112301E009F10103DF
:1008D0000AAA01A90CA8FFF7E2FEDDE90C700026C8
:1008E00009F10105834647E001204B4600904FF097
:1008F00000470AAA01A90CA8FFF7D1FEDDE90DB057
:100900000C995D46002610B909F101000D18B9EBEC
:10091000050003D4C0F1FF3609F10105A5EB09007C
:100920002BE0B9F1010F01DA4FF001090020B9F114
:10093000110F0090484601DD112300E003460AAA8A
:1009400001A90CA8FFF7ABFEDDE90C704D460026AF
:100950008346207800070AD4AB4500DA5D4601A83B
:10096000012D04DD411911F8011C302907D04F4534
:1009700002DA17F1040F04DA012082460FE06D1E3F
:10098000EEE7002F02DCED1B3E4403E0781CA8429A
:1009900000DD7D1CB81B00F1010A4FF000472078F4
:1009A000000703D4AA4501DB4FF0FF3A0021B7F15D
:1009B000004F0DF143088DF8431024D002202B2363
:1009C000002F01DA7F422D230A21021EA0F101002F
:1009D00000DC5FB197FBF1FC97FBF1F201FB1C7CA3
:1009E00017460CF1300C08F801CDEEE7A8F1010034
:1009F00003702188090501D5452100E06521A0F19A
:100A0000010800F8011C09980FA9A1EB0807FF1DB8
:100A100000B10120411901EBEA70A1693844081ABC
:100A2000401EA0612078C00602D42046FFF710FCCB
:100A3000099828B1D4E901219047206A401C20621E
:100A40002078C00622D52046FFF702FC1EE0002ECB
:100A500004DBB34502DD01A8805D00E03020D4E96D
:100A600001219047206A401C2062761CAAF10100F7
:100A70005FEA000A0AD100F055F8C0680168405CDE
:100A8000D4E901219047206A401C2062281EA5F16C
:100A90000105DCDC07E0D4E9012118F8010B9047DF
:100AA000206A401C2062381EA7F10107F3DC2046B3
:100AB000FFF7E4FB032011B041E6000001694A1C86
:100AC00002610878704700B58FB0CDE9013100218F
:100AD000059105497944CDE9031011466846FFF7B1
:100AE0006FFC0FB000BD0000E5FFFFFF0A6802F8D1
:100AF000010B0A60704710B5436913B1AFF3008072
:100B000001E0FFF7CCFB012010BD127800F12401B9
:100B10000A7000224A700122EDE711684FF0FF329F
:100B2000E9E70000004870476007002030B5B0F1E9
:100B30000A024FEA900E71F100034EEA817EB0EB9B
:100B40000E0061EB91014FEA101E4EEA017E10EBA0
:100B50000E0041EB11114FEA102E4EEA016E10EB20
:100B60000E0041EB11214FEA104E4EEA014E10EB00
:100B70000E0041EB1141401841F100014FEAD00055
:100B800040EA41704FEAD10110EB80054FEA810441
:100B900044EA907444EB01046D1944EB0404521BC5
:100BA000A3414FF0000348BF0A3200D530BD401CBE
:100BB00041F1000130BD00002DE9F0411F4604461F
:100BC00003260168072A01F4006004DB08B116A5BA
:100BD00005E016A503E008B115A500E015A521F074
:100BE00010002060A069C01EA0610FB1401EA0616E
:100BF0002046FFF72DFB4FB1D4E90121384690473D
:100C0000206A401C2062C01C206206E0206AFAE7CD
:100C1000D4E9012115F8010B9047761EF8D2204641
:100C2000FFF72CFBBDE8F0814E414E006E616E0077
:100C3000494E4600696E66002DE9F047814616462A
:100C40008AB0354878440DC88DE80D0032487844A4
:100C5000801C03AC0DC884E80D0041F69B300844AD
:100C6000372190FBF1F290FBF1F5A5F1800501FB36
:100C700012041B3C02D56442012000E00020DFF892
:100C800098A080460027FA44AAF1BE0A0EE0E007C9
:100C90000AD03246684607EB470101230AEB81017F
:100CA00000F046FB8DE8070064107F1C002CEED19D
:100CB000194F7F44AE3F19E0E80715D007EB041049
:100CC0000DF1180A90E80E008AE80E00C068F042A4
:100CD00001D1981908903246012306A903A800F013
:100CE00027FB03AB83E807006D10641C002DE3D1E4
:100CF0004FF0010332466946B8F1000F03A802D055
:100D000000F001FB01E000F013FBC9E90001C9F8A4
:100D100008200AB0BDE8F08784A3000000487047AF
:100D2000400700207546FFF7F9FFAE46050069460B
:100D3000534620F00700854618B020B5FFF74EFA5D
:100D4000BDE820404FF000064FF000074FF00008CC
:100D50004FF0000B21F00701AC46ACE8C009ACE84D
:100D6000C009ACE8C009ACE8C0098D46704710B5B1
:100D70000446AFF300802046BDE81040FFF719BAE3
:100D80004FF0013C50F8042B51F8043B9A4221D11A
:100D9000A2EB0C03934313EACC1317D150F8042BA6
:100DA00051F8043B9A4215D1A2EB0C03934313EA8A
:100DB000CC130BD150F8042B51F8043B9A4209D1C3
:100DC000A2EB0C03934313EACC13DBD04FF00000EB
:100DD000704700BFD01A01BAB1FA81F101F01801D1
:100DE00022FA01F0CB40C1F12001DBB2C0B2C01A3F
:100DF0002CFA01F3D11A914311EAC311E6D17047DD
:100E000001491820ABBEFEE72600020070475FEAEA
:100E1000400C08BF91F0000F4FEA8C234FEAC1222B
:100E200043EA51514FEA1C5018BF00F5F0404FEA19
:100E3000300018BF41F000415FEA6C5C00F029808F
:100E4000BCF1FF3F08BF40F080407047130C06BF65
:100E500012044FF0100C4FF0000C130E04BF1202DE
:100E60000CF1080C130F04BF12010CF1040C930FCA
:100E700004BF92000CF1020CD30F04BF52000CF11E
:100E8000010C11464FF00002A0F11F00A0EB0C0076
:100E9000704711F0004F08BF704731F000413FF438
:100EA000D5AF0B0C06BF09044FF0100C4FF0000C2F
:100EB0000B0E04BF09020CF1080C0B0F04BF090153
:100EC0000CF1040C8B0F04BF89000CF1020CCB0F4A
:100ED00004BF49000CF1010CCCF12003A0EB0C0085
:100EE00022FA03F302FA0CF241EA030100F10100D5
:100EF000704720F07F4C80EA030023F07F47ACEB83
:100F0000070303F57C5300F0004003F1FF032DE9D4
:100F100080494FEA154B09B44FEA144325EA0B4EBA
:100F200024EA03480FF2042606EB132749083E780B
:100F30005FEA320203FB0667C7F5000707FB06F608
:100F40004FEA54374FEAD64606F1020607FB066C15
:100F5000CCF1005C4FEA1C472CEA074C07FB06F477
:100F60000CFB06F504EB15464FEA961634BF00203D
:100F70004FF000404FEAD13706FB07FC4FEA1C4C0C
:100F80000CFB0BF7D21B03FB0CF761EB07010CFB0F
:100F90000EF7B0EB074072EB17420CFB08F734BFBB
:100FA000A2EB0742B2EB074261EB17414FEA0C4458
:100FB0004FEA910706FB07FC4FEA1C4C0CFB0BF7B2
:100FC000B0EBC74072EB573203FB0CF734BFA2EB18
:100FD000C742B2EBC74261EB57310CFB0EF7B0EBE7
:100FE000C70072EB57720CFB08F734BFA2EBC702C5
:100FF000B2EBC70261EB5771039F4FEA816141EA8F
:10100000921104EBCC044FEAD1374FEA826206FB1F
:1010100007FC42EA90124FEA80604FEA1C4C0CFB3E
:101020000BF7D21B03FB0CF761EB07010CFB0EF770
:10103000B0EB074072EB17420CFB08F734BFA2EB92
:101040000742B2EB074261EB17414FEA8C554FEA7A
:10105000910704EB9C2406FB07FC4FEA1C4C0CFB9D
:101060000BF7B0EBC74072EB573203FB0CF734BF02
:10107000A2EBC742B2EBC74261EB57310CFB0EF754
:10108000B0EBC70072EB57720CFB08F734BFA2EB52
:10109000C702B2EBC70261EB577115EB4C254FEA63
:1010A000816141EA92114FEA82624FEAD13742EA06
:1010B000901206FB07FC44F100044FEA80604FEAFF
:1010C0001C4C0CFB0BF7D21B03FB0CF761EB07016D
:1010D0000CFB0EF7B0EB074072EB17420CFB08F766
:1010E00034BFA2EB0742B2EB074261EB174115EBAD
:1010F0001C154FEA813141EA92414FEA823242EABD
:1011000090424FEA80304FEA0C7644F1000448EAFE
:1011100003434EEA0B484FF0000EB2EB080C71EBA4
:10112000030724BF624639464EEB0E0E4FF0000B0C
:101130000018524149414BEB0B0BB2EB080C71EB21
:1011400003077BF1000B24BF624639464EEB0E0EBF
:101150004FF0000B0018524149414BEB0B0BB2EB27
:10116000080C71EB03077BF1000B24BF6246394684
:101170004EEB0E0E51EA020718BF46F0010616EBC1
:101180000E7655F1000254F1000103D5BDE8890146
:10119000BDE80088BDE88901BDE80048B6195241A4
:1011A00041EB0101A3F10103704780807F7E7D7CCC
:1011B0007B7A7978777676757473727171706F6EE9
:1011C0006E6D6C6C6B6A6A69686867666665646494
:1011D000636362616160605F5F5E5E5D5D5C5C5B1E
:1011E0005B5A5A595958585757565655555554548D
:1011F000535352525251515050504F4F4F4E4E4DEB
:101200004D4D4C4C4C4B4B4B4A4A4A494949484836
:101210004847474747464646454545444444444376
:1012200043434342424242414141002B9C4630D419
:1012300077002BD01CB54FEA370703B44FF01000EE
:101240004FF01001BAF1000F06D0BCF1000FDCBF67
:1012500040F0080040F008014FF000000FBCBDE86E
:1012600010400BF1010BBBF1010F08BF5FEA17073C
:1012700022BF12F1010211F101014FF0004143F1CF
:10128000000300F0004043EA00007047F9D357081C
:10129000D0E746EA064613F1400F4FEA16461FDD37
:1012A00013F1200FDFBF16430A46002120335B42B3
:1012B000BED0C3F1200746EA064602FA07F74FEA16
:1012C000164646EA0706C3F1200722FA03F201FA9E
:1012D00007F721FA03F14FF0000342EA0702A7E7FC
:1012E00046EA020646EA06464FEA164646EA01067E
:1012F000BCBF46EA0646360C4FF000034FF0000232
:101300004FF0000194E72DE9804C9A46934670B463
:1013100091E8380007C831EA400C48BF34EA430C72
:1013200003D5FFF7E6FDFFF780FFF0BCBDE8008CBA
:101330002DE9804C9A46934670B491E8380007C86E
:1013400010F0804F08BF13F0804F03D100F005F874
:10135000FFF76BFFF0BCBDE8008C20F07F4780EA10
:10136000030023F07F4C07EB0C03A3F57C5300F044
:101370000040A3F1FE0392F0000F00F0B38095F05F
:10138000000F00F077802DE901494FEA11404FEA44
:10139000144621EA004800FB06FC24EA064708FB45
:1013A00006F607FB08F800FB07F718EB06484CEBBE
:1013B000164C4FEA124B18EB07484FEA15464CEB18
:1013C000174022EA0B4E0BFB06FC25EA06470EFBF4
:1013D00006F607FB0EFE0BFB07F71EEB064E4CEB6B
:1013E000164C4FF000061EEB074E4CEB174B18EB5C
:1013F0000B0840F1000018EB0E0B58EB000840F111
:1014000000008F1A4FF000013CBFC943661B14BF98
:10141000B5EB040C00213CBFC943F61B4FEA17444F
:101420004EEA8E0E27EA04454FEA1C4704FB07628A
:101430002CEA074C05FB07F70CFB05F604FB0CFC3C
:1014400016EB074642EB174216EB0C4642EB1C42EA
:101450001BEB060658EB0202414146EA9E0601D507
:10146000BDE80189B619524141EB0101A3F1010325
:10147000BDE801894FEA14454FEA114724EA0546C1
:1014800021EA074C05FB07F406FB07F70CFB06F106
:1014900005FB0CFC11EB074144EB17444FEA1247E4
:1014A00011EB0C4144EB1C4422EA074C05FB07F20C
:1014B00006FB07F70CFB06F605FB0CFC16EB0746D4
:1014C00042EB174216EB0C4642EB1C456A1854F1EE
:1014D000000148BF7047B619524141EB0101A3F129
:1014E0000103704795F0000F37D04FEA11424FEAE1
:1014F000144721EA024624EA074C02FB07F106FBE7
:1015000007F70CFB06F402FB0CFC14EB074441EB61
:1015100017414FEA154714EB0C4441EB1C4125EAF7
:10152000074C02FB07F506FB07F70CFB06F602FB70
:101530000CFC16EB074645EB174516EB0C4645EB46
:101540001C42121951F1000148BF7047B6195241AF
:1015500041EB0101A3F1010370474FEA14454FEA43
:10156000114724EA054621EA074C05FB07F106FB73
:1015700007F70CFB06F24FF0000605FB0CFC12EB24
:10158000074241EB174112EB0C4251EB1C4148BFA3
:101590007047921841EB0101A3F101037047FEE788
:1015A0007047000001B5074807490068B0FBF1F03B
:1015B000009948430090411E009101D30846FAE784
:1015C00008BD0000E800002000127A000649002053
:1015D000C8610648016941F004010161016941F0F7
:1015E00040010161704700002007002000200240F8
:1015F000064A0021D16106490A6942F002020A61E5
:101600004861086940F040000861704720070020E9
:1016100000200240044B0022DA61044A136943F0BF
:101620000103136101807047200700200020024061
:1016300014480022C168CB06134904D5CA6942F098
:101640000202CA611022C3685B0705D5CB6943F06B
:101650000103CB6142F00402C369DB0707D0CB6909
:1016600043F00403CB61C16921F00101C161A2F51E
:101670008071013901D0C2607047C16921F0010158
:10168000C1617047002002402007002070B5054668
:1016900000F0B4FB0646114C09E0681C07D025B1E8
:1016A00000F0ACFB801BA84201D9032070BDE068AC
:1016B000C007F2D1E068800601D52020E060E06834
:1016C000C00605D4E069C00702D1E068400703D531
:1016D000FFF7AEFF012070BD002070BD002002406A
:1016E00008B500210090034843880288084600F0AE
:1016F00027F808BDEC000020F8B505460F480C4659
:1017000016460188A94217D94088A04214D902F090
:10171000C1F9601C83B2681C82B22146284602F0DF
:10172000C1F9300A8DF800008DF801600221684689
:1017300002F006FA02F0E8F9F8BD0000EC00002023
:101740002DE9F843074623480E46DDF8208001883E
:101750001D461446B9423BD94088B04238D93A199F
:10176000521E8A4201DBC91B8CB27119491E81428B
:1017700001DB801B85B202F08DF97019401E83B227
:101780003819401E82B23146384602F08BF94FEAD2
:1017900018208DF8000001228DF8018011030E48F9
:1017A00000F027FB2E464FF0FF370DE0254607E0FF
:1017B0003B4602226946094801F0F6FA6D1EADB2B9
:1017C000002DF5D1761EB6B2002EEFD102F09CF9B5
:1017D000BDE8F883EC00002000080140B4050020BB
:1017E0000FB44A1E2DE9F04FC3F30726324485B0EB
:1017F00094B2DFB2DDE913BA421E3A4492B22346F4
:1018000002F050F910980024A0F1200833E000BF46
:101810001299B8F15F0F02D208FB064003E010985E
:10182000613800FB0640002531F810904FEA1B207C
:1018300003900BF0FF0002904FEA1A2001900AF08B
:10184000FF00009014E000BF09FA05F0000404D581
:1018500003988DF81000029803E001988DF81000AD
:1018600000988DF81100022104A802F069F96D1C9E
:10187000AF42E9D8641CA642CAD805B0BDE8F00F53
:101880005DF814FB2DE9FE4F9846DDE90DBA1446CC
:101890000E46054602F0FEF8DFF8509008F0FF070C
:1018A0001CE0B9F80030791999420BD3C8F307212D
:1018B0008B199EB2B9F8020000253144814210D242
:1018C000202A0AD0CDE901BA0C980090434631464F
:1018D0002846FFF785FF781985B2641C2278002A14
:1018E000DFD1BDE8FE4F02F00FB90000EC00002090
:1018F00030B50223437103689C6844F001049C6086
:10190000002304E0056851F823402C605B1C9342DF
:10191000F8D30168096801224271084630BD10B54C
:10192000040002D0607910B106E0012010BD002053
:101930002071204600F004F801206071002010BDE5
:1019400008B500680649884208D10648416941F057
:1019500040014161406900F04000009008BD000076
:10196000003002400010024070B5044600F046FA14
:101970000546601C02D004480078044400F03EFA9A
:10198000401BA042FAD370BDDC0000202DE9F047D7
:10199000054626480F460126017E01290FD0012168
:1019A000814601762868DFF888804CF2503402289E
:1019B00008D0A2462046FFF769FEA8B131E0022018
:1019C000BDE8F0872046FFF761FE08BB0120FFF766
:1019D000FDFD2046FFF75AFED8F81010064621F00C
:1019E0000401C8F810101CE04FF0FF303860AC68FC
:1019F00011E02046FFF7FCFD5046FFF747FED8F800
:101A00001010060021F00201C8F8101001D03C604F
:101A100007E004F58064D5E9020100EB8120A042D3
:101A2000E7D8002189F818103046C9E720070020C0
:101A3000002002400348016941F08001016100205B
:101A400070470000002002402DE9F05F07461C4867
:101A500088460024017E15461E46012909D0012131
:101A6000814601764CF2503A5046FFF70FFE18B10E
:101A700022E00220BDE8F09F012F02D0022F00D00B
:101A80000427D346DFF83CA0220128463146FEF762
:101A9000B7FB81B208EB4400FFF7BCFD5846FFF7E7
:101AA000F5FDDAF8102022F00102CAF8102018B96A
:101AB000641CE4B2BC42E7D3002289F81820D9E7BD
:101AC0002007002000200240064900200A69120673
:101AD00007D5054A4A60054A4A600969090600D5E2
:101AE000012070470020024023016745AB89EFCDFC
:101AF0002DE9F04300233E4F0F2573E001229A4069
:101B00000A406DD023F00304E619D6F808809C073C
:101B10004FEA147C05FA0CF909EA0804DFF8D480CE
:101B2000404502D14FF0000816E0DFF8CC80404578
:101B300002D14FF001080FE0DFF8C080404502D12C
:101B40004FF0020808E0DFF8B880404502D14FF0BE
:101B5000030801E04FF0040808FA0CF8A04522D170
:101B6000284CD4F800C02CEA020CC4F800C0241D94
:101B7000D4F800C02CEA020CC4F800C0214C0C348C
:101B8000D4F800C02CEA020CC4F800C0241FD4F81A
:101B900000C02CEA020CC4F800C0D6F808C02CEA39
:101BA000090CC6F808C0FF2A01D8064601E000F17A
:101BB00004064FEA830401D9A4F12004D6F800C03A
:101BC00005FA04F82CEA080C4FF0040808FA04F8A7
:101BD0004CEA080CC6F800C0C46824EA0204C460D9
:101BE00003F1010331FA03F288D1BDE8F08300006C
:101BF0000000014000080140000C014000100140BD
:101C000000140140000401402DE9F84FDFF8B891BD
:101C10000024A9F1040B23460F2709F1040AABF1B4
:101C2000040EC9E00125A5402A40AA427DD1674E95
:101C3000D1F804C0ACEB0608B44532D014DCBCF1DA
:101C4000030F3AD009DCBCF1000F2AD0BCF1010F20
:101C50001CD0BCF1020F31D11DE0BCF1110F17D027
:101C6000BCF1120F2AD119E0B8F5881F19D006DC93
:101C7000B8F5803F15D0B8F5801F1FD111E0B8F539
:101C8000001F0ED0B8F5041F18D10AE0CB6815E08C
:101C9000CB681B1D12E0CB6808330FE0CB680C3318
:101CA0000CE08B682BB1012B4FF0080303D045618A
:101CB00004E0042302E0056100E00023FF2A01D8CC
:101CC000064601E000F104064FEA840501D9A5F1BA
:101CD0002005D6F8008007FA05FC28EA0C0803FA6C
:101CE00005F548EA0508C6F800804D68ED0062D5A4
:101CF000374DAE6946F00106AE61AD6924F00306CA
:101D000005F001050095334D06EB050CDCF8085095
:101D1000A607360F07FA06F825EA0805DFF8B880A7
:101D2000404503D14FF0000817E044E0DFF8AC80F5
:101D3000404502D14FF001080FE0DFF8A480404594
:101D400002D14FF0020808E0DFF89880404502D148
:101D50004FF0030801E04FF0040808FA06F848EADB
:101D60000508CCF808804D68D9F80060ED024D46B2
:101D700001D5164300E096432E604D68DAF8006006
:101D8000AD02554601D5164300E096432E604D68DE
:101D9000DBF80060AD035D4601D5164300E09643D5
:101DA0002E604D68DEF80060ED03754601D51643E0
:101DB00000E096432E60641C0D682A46E5407FF4DF
:101DC00031AFBDE8F88F0000080401400000111099
:101DD000001002400000014000080140000C0140DA
:101DE00000100140001401408068084000D001202C
:101DF00070470AB1016170470904FBE70148806838
:101E000070470000DC00002070B5040025D094F875
:101E10003D00002520B984F83C50204600F04EF9E2
:101E2000242084F83D002068016821F00101016050
:101E30002068016841F4004101602068016821F4D4
:101E40000041016000F06EFB4D4A6168914201D88B
:101E50004C4900E04C49884201D2012070BD4B49F9
:101E60002368B0FBF1F15E6826F03F060E435E602A
:101E70006368934206D94FF4967359434FF47A73CB
:101E8000B1FBF3F12368491C1E6A26F03F0631437B
:101E900019626168914210D84900401EB0FBF1F20E
:101EA000521CC2F30B02042A01D2042022E0B0FB30
:101EB000F1F0401CC0F30B001CE0A268F2B301EB90
:101EC000C10303EB0116431EB3FBF6F35B1C43F4A3
:101ED00080431B0549D092B301EBC10202EB011113
:101EE000401EB0FBF1F0401CC0F30B0040F48040FA
:101EF00040F400402168CA694CF6FF739A431043CE
:101F0000C861D4E9071001432068026822F0C002CA
:101F100011430160D4E9030101432068826848F25B
:101F2000FF339A4311438160D4E9050108432168D6
:101F3000CA6822F0FF021043C86001E00EE016E01C
:101F40002068016841F0010101602564202084F8C7
:101F50003D00256384F83E50002070BD01EB410632
:101F6000431EB3FBF6F35B1CB3E70120C2E701EBB2
:101F70004101401EB0FBF1F0401CC0F30B00B7E77D
:101F8000A086010080841E0000093D0040420F0031
:101F90002DE9F84F1F4690468A460446DDF8289002
:101FA000FFF72CFF054694F83D0020287FD1192328
:101FB000012240492046009501F03CFB002876D1E3
:101FC00094F83C00012872D0012084F83C0020687D
:101FD0000168C90703D1016841F00101016020686F
:101FE000016821F400610160212084F83D00102087
:101FF00084F83E0000262664C4F824806785608D3E
:1020000020852D48E0622B464A465146204601F085
:1020100097FA90B9206841698069009036E02A46B5
:102020004946204601F0ACFB50B1206C042804D195
:102030002068016841F4007101600120BDE8F88F5B
:10204000606A216800780861606A401C6062618D86
:10205000491E6185218D491E89B2218522685369F7
:10206000DB435B070BD451B100781061606A401C00
:102070006062608D401E6085208D401E20852A464E
:102080004946204601F0AAFA0028CED1208D00282A
:10209000C5D154F83D0B016841F400710160202066
:1020A00004F81E09E67766770020C7E7FFE70220FD
:1020B000C4E70000020010000000FFFF10B586B06A
:1020C0000021009101910291039100681349884217
:1020D00022D1134CA06940F00800A061A0696946B4
:1020E00000F0080004904FF440700090122001901E
:1020F000032003900B48FFF787FD0B48416841F030
:10210000E06141F002014160E06940F40010E061EB
:10211000E06900F40010049006B010BD00540040C7
:1021200000100240000C014000000140024881689C
:102130000278114481607047DC000020074810B528
:10214000016841F010010160032000F075F80020E3
:1021500000F006F800F024F8002010BD0020024036
:1021600070B50D4D04464FF47A712878B1FBF0F04C
:102170000A490968B1FBF0F000F0C1FF48B9102C22
:1021800007D200222146501E00F036F800206C6075
:1021900070BD012070BD0000DC000020E8000020C0
:1021A0000C4808B5816941F001018161816901F044
:1021B00001010091C16941F08051C161C06900F025
:1021C000805000900448416821F0E06141F00071C6
:1021D000416008BD0010024000000140002809DBFA
:1021E00000F01F02012191404009800000F1E02031
:1021F000C0F8001170470000F0B40E4B1B680C468D
:10220000C3F30223C3F10705042D00D90425191DCA
:10221000072901D2002300E0DB1E012606FA05F1A2
:10222000491E214099409E40761E16403143F0BC25
:1022300002F00CB90CED00E0064900F00702086856
:102240004FF6FF03184040EA0220034A104308609B
:10225000704700000CED00E00000FA050149012084
:102260000862704700000E4210B501460020234C62
:10227000012922D0022939D010291DD16168226894
:10228000D20119D51E48C1F38342C903805C0AD527
:1022900061681B4AC1F34041921E515C194AB2FB6E
:1022A000F1F1484301E0184948436168490203D409
:1022B00040000321B0FBF1F010BD226AC2F30121FE
:1022C000012903D1920701D5C80310BD022905D108
:1022D000626A920702D549F6404010BD0329FCD13D
:1022E00021688903F9D54FF2244010BD00F02AF986
:1022F0006168C1F38131491C4900DBE700100240ED
:10230000ECAE000800127A0000093D002DE9F84308
:1023100005460078354CC00754D0E0690026C0005F
:1023200008D4E06940F08050E061E069012600F0E7
:10233000805000902E480168C90512D4016880467B
:1023400041F480710160FFF759FD074605E000BFC9
:10235000FFF754FDC01B642823D8D8F80000C0053F
:10236000F6D5206A10F4407021D0A98801F440719C
:1023700081421CD0206A1F49012220F440700A606B
:1023800000220A602062C00711D0FFF737FD074620
:1023900041F2883808E000BFFFF730FDC11B41451E
:1023A00002D90320BDE8F883206A8007F4D5206AAB
:1023B000696820F44070084320621EB1E06920F093
:1023C0008050E0612878800705D56068A96820F40E
:1023D0004040084360602878C00605D56068E96819
:1023E00020F48000084360600020DBE7001002401A
:1023F00000700040400442422DE9F0470F460500BE
:1024000061D0434E306800F00700B84209D230680E
:1024100020F0070038433060306800F00700B84211
:1024200051D128683B4C810712D5400703D560681D
:1024300040F4E06060602878000703D5606840F4ED
:10244000605060606068A96820F0F0000843606038
:102450002878C00728D06868012810D02168022891
:1024600010D0890700292EDA616821F003010143A9
:102470006160FFF7C3FC804641F288390DE02168B6
:102480008903EFE78901EDE7FFF7B8FCA0EB08014E
:10249000494502D90320BDE8F0876068696800F00B
:1024A0000C00B0EB810FEFD1306800F00700B842AC
:1024B0000BD9306820F0070038433060306800F0F6
:1024C0000700B84201D00120E5E72878400705D58C
:1024D0006068E96820F4E0600843606028780007DD
:1024E00006D56068296920F4605040EAC100606048
:1024F00000F038F86168084AC1F30311515CC84024
:102500000649086006480068FFF72AFE0020C2E777
:102510000020024000100240FCAE0008E80000204D
:10252000E00000200448054900684968044AC1F3F6
:102530000221515CC8407047E800002000100240B2
:102540000CAF00080448054900684968044AC1F313
:10255000C221515CC8407047E800002000100240D2
:102560000CAF00080E4A51680E4801F00C03042B12
:1025700011D0082B0FD10C48C1F38343C903C05CB1
:102580000AD55168084AC1F34041921E515C054A80
:102590005043B0FBF1F070470449484370470000D6
:1025A0000010024000127A00DAAE000800093D0077
:1025B0002DE9F84F040070D02078C04DC00749D0F5
:1025C0006868C0F38100012807D06868C0F3810003
:1025D000022809D16868C00306D52868800339D568
:1025E00060680028E7D035E06068B0F5803F0BD028
:1025F00010B1B0F5A02F11D0286820F480302860E9
:10260000286820F4802002E0286840F480302860A8
:10261000606890B1FFF7F2FB06460AE0286840F4D4
:1026200080202860F0E700BFFFF7E8FB801B6428EC
:1026300073D828688003F7D50CE0FFF7DFFB064668
:1026400005E000BFFFF7DAFB801B6428F0D828689C
:102650008003F7D420789A4E80074FF001094FF09D
:10266000000839D5686810F00C0F07D06868C0F30F
:102670008100022809D16868C00306D42868800751
:1026800014D52069012808D110E02069B0B1C6F83E
:102690000090FFF7B3FB074605E00AE1FFF7AEFB4A
:1026A000C01B0228C4D828688007F7D5286861694C
:1026B00020F0F80040EAC10028600DE0C6F8008074
:1026C000FFF79CFB074604E0FFF798FBC01B0228BE
:1026D00023D828688007F7D4207800072CD57948BC
:1026E000A169D9B1C0F80090FFF788FB074604E064
:1026F000FFF784FBC01B02280FD8686A8007F7D554
:1027000071484FF4FA510068B0FBF1F0009000BF3F
:102710000098411E0091FAD20EE080E0C0F80080DF
:10272000FFF76CFB074604E0FFF768FBC01B0228BD
:1027300075D8686A8007F7D42078400760D5E869C3
:102740000027C00008D4E86940F08050E861E869DB
:10275000012700F0805000905C480168C90513D43F
:102760000168834641F480710160FFF747FB8246B0
:1027700006E000BFFFF742FBA0EB0A0064284ED83A
:10278000DBF80000C005F5D5E06801280AD008B1E3
:10279000052813D0286A20F001002862286A20F05A
:1027A000040002E0286A40F001002862E06841F27B
:1027B000883B98B1FFF722FB82460BE0286A40F085
:1027C00004002862EEE700BFFFF718FBA0EB0A0148
:1027D00059455AD8286A8007F6D50CE0FFF70EFB5A
:1027E000824605E0FFF70AFBA0EB0A0159454CD8E9
:1027F000286A8007F6D41FB1E86920F08050E861AC
:10280000E06988B36968C1F38101022944D00228D4
:10281000C6F8608004D0FFF7F1FA044638E034E0EF
:10282000FFF7ECFA074604E0FFF7E8FAC01B0228BE
:102830002BD828688001F7D4206AB0F5803F05D1F5
:102840006868A16820F4003008436860D4E9080192
:102850000843696821F4741108436860C6F8609001
:10286000FFF7CCFA044606E025E000BFFFF7C6FA02
:10287000001B022809D828688001F7D51BE000BF9B
:10288000FFF7BCFA001B022802D90320BDE8F88F2D
:1028900028688001F4D40EE00128F7D06868226A25
:1028A00000F48031914204D1616A00F470108842D2
:1028B00001D00120EAE70020E8E700000010024014
:1028C0000000424280044242E800002000700040C4
:1028D0007047704710B5044600680168C90717D0F3
:1028E0004168C90714D040684007204607D5FFF764
:1028F000F0FF21686FF004004860042002E0FFF759
:10290000E7FF012060742068416821F00101416007
:1029100010BD80B1017C01290FD001210174022278
:1029200042740268136843F001031360417400218C
:102930000174084670470120704702207047F8B5BF
:1029400005004FF0000016460C46009006D02CB152
:1029500000226946284600F019F808B10120F8BDA8
:10296000287B2070E87BE070697B6170A97BA17097
:1029700056B101F0EBF9E070607801F0E7F96070B2
:10298000A07801F0E3F9A0700020F8BD2DE9F04730
:1029900091460C465FEA00084AD084B3D8F800009C
:1029A0004068400744D4404601F07BFA4FF461622E
:1029B0000546B0FBF2F1B0FBF2F302FB13503C23EF
:1029C000B0FBF3F0B5FBF2F6607002FB1650B0FB03
:1029D000F3F203FB1200A070182931D31820B1FBC9
:1029E000F0F7B1FBF0F200FB12102070404601F04E
:1029F00051FA411C04D0A84202D9461B02E017E05C
:102A00004FF0FF36A7EB071000EB4000C0EB0010C3
:102A100005EBC0152946404601F092FA40B9701CFA
:102A200001D0711900E03146404601F075FA10B14D
:102A30000120BDE8F0873946404601F092F900E0F8
:102A40002170B9F1000F0BD0207801F07FF92070D0
:102A5000607801F07BF96070A07801F077F9A070E0
:102A60000020E6E770B5040003D0607C002610B1BA
:102A700005E0012070BD2674204600F03DF80220DC
:102A80006074204600F0B2F8042550BB204601F0E7
:102A9000BFF930BB2068416821F007014160A068A0
:102AA00020B11448016821F0010101601148001FA4
:102AB0000168A26821F46071114301606068411CE3
:102AC00004D10120FFF7D0FB58B1401E2268C0F3AB
:102AD00003419160216880B2C860204601F0B2F9DC
:102AE00008B16574C5E7E67301206073A073607474
:102AF000002070BD306C004008B500680D49884268
:102B000017D1FFF7ABFB0C48C16941F00061C1610F
:102B1000C0690A4900F000600090012008600022AE
:102B200011460320FFF768FBBDE808400320FFF7CC
:102B300055BB08BD00280040001002403C04424242
:102B40002DE9F0410D46040024D01DB3207C01285E
:102B500023D04FF0010884F8108002206074287898
:102B6000EAB101F0EAF84FF4616100FB01F6687820
:102B700001F0E3F8C0EB001006EB8006A87801F046
:102B8000DCF835182946204601F0DAF9002604273A
:102B900010BB0FE00120BDE8F0810220FBE74FF4FD
:102BA000616148436978C1EB011100EB8100A978AC
:102BB0004518E7E72068416821F00501416020469B
:102BC00001F068F9411C0AD0A84208D20649014424
:102BD000204601F0A1F910B167742674DAE784F891
:102BE000118026740020D6E78051010070B50400E2
:102BF0000AD02068416821F008014160FFF7FEF823
:102C000005464FF47A7608E0012070BDFFF7F6F82C
:102C1000401BB04201D9032070BD20684068000706
:102C2000F4D5002070BD10B5040011D0022084F846
:102C300051002068016821F040010160204600F049
:102C400063F80020606584F8510084F8500010BDDE
:102C5000012010BD70B5040009D0606A002540B1A4
:102C600025616561A56294F8510040B10CE0012036
:102C700070BD6068B0F5827FF4D0E561F2E784F85A
:102C80005050204600F056F8022084F85100206889
:102C9000016821F040010160A088218900F4827060
:102CA00001F404410843A18901F400610843217C37
:102CB00001F002010843217D01F001010843218B4D
:102CC00001F400710843217F01F03801084394F8B2
:102CD000201001F080010843218D01F400510843C8
:102CE00021680860A069042101EA10402168486059
:102CF0002068C16921F40061C1616565012084F823
:102D00005100002070BD000000680749884209D1C9
:102D10000648C16921F48041C1614FF46041044813
:102D2000FEF7E6BE70470000003800400010024089
:102D3000000C014030B585B0002400940194029449
:102D4000039400681549884225D11548C16941F4AA
:102D50008041C161C16901F480410491816941F000
:102D60000801816180690F4D00F0080004904FF464
:102D700020400090022001900320039069462846DD
:102D8000FEF742FF4FF48040CDE900046946284633
:102D90000294FEF739FF05B030BD00000038004056
:102DA00000100240000C01402DE9F84F98461646ED
:102DB0008A460446FFF722F8814694F8510001281C
:102DC0001ED1BAF1000F73D0002E71D094F85000CC
:102DD000012815D0012784F85070032084F8510091
:102DE00000256565C4F830A0A686E686A563A5879C
:102DF000E58765642564A068B0F5004F03D00CE05A
:102E00000220BDE8F88F2068016821F040010160D0
:102E10002068016841F4804101602068016849062A
:102E200003D4016841F040010160E068B0F5006F33
:102E3000606803D048B3012E27D047E008B1012EC7
:102E40001FD1206B21680088C86006E02068816877
:102E5000890709D5216B0988C160206B801C20631C
:102E6000E08E401EE0860CE0FEF7C8FFA0EB0901F3
:102E7000414503D3B8F1FF3F03D035E0B8F1000F6F
:102E800032D0E08E0028E1D123E0206B2168007869
:102E9000087306E02068816889070AD5216B0978E4
:102EA0000173206B401C2063E08E401EE0860DE025
:102EB0002BE0FEF7A3FFA0EB0901414503D3B8F1D6
:102EC000FF3F03D010E0B8F1000F0DD0E08E0028D6
:102ED000E0D14A464146204601F04FF808B1202093
:102EE0006065A06830B109E084F8517084F85050F2
:102EF000032086E72068C1688068009084F85170DC
:102F000004F8505F60680028F3D0012079E72DE9CC
:102F1000FF4F81B01D46934604464FF001090E9EB7
:102F2000FEF76CFF074694F851006168012806D04F
:102F3000B1F5827F3CD1A168C9BB042838D1029881
:102F4000002871D0BBF1000FFBD0002DF9D094F810
:102F5000500001282CD04FF0010A84F850A094F8BA
:102F60005100042802D0052084F851004FF00008D9
:102F7000C4F85480C4F838B0E587A5870299216366
:102F8000E586A586C4F84080C4F8448020680168BE
:102F9000490603D4016841F040010160E068B0F5E2
:102FA000006F606808D0F0B3012D49D081E0FFE7E1
:102FB000022005B0BDE8F08F08B1012D39D1206B9A
:102FC00021680088C860206B801C2063E08E401E52
:102FD000E0862EE02068816889070FD5E18E69B10F
:102FE000B9F1010F0AD1216B0988C160206B801CE7
:102FF0002063E08E401EE0864FF000092068816863
:10300000C9070CD0E18F51B1C068A16B0880A06BDB
:10301000801CA063E08F401EE0874FF00109FEF79F
:10302000EDFEC01B01E00BE067E0B04201D3701C75
:1030300050D1E08E0028CDD1E08F0028CAD13EE0EB
:10304000206B216800780873206B401C2063E08EA1
:10305000401EE0862DE02068816889070FD5E18E4B
:1030600069B1B9F1010F0AD1216B09780173206BA5
:10307000401C2063E08E401EE0864FF0000920686F
:103080008168C9070CD0E18F51B1C068A16B08708D
:10309000A06B401CA063E08F401EE0874FF0010949
:1030A000FEF7ACFEC01BB04202D3701C01D011E091
:1030B00086B1E08E0028CED1E08F0028CBD13A46F1
:1030C0003146204600F059FF50B12020606584F859
:1030D000508012E084F851A084F85080032068E703
:1030E000A06818B92068C1688068009084F851A071
:1030F00084F85080606D0028F1D0012059E710B5A8
:10310000401EB0F1807F01D3012010BD4FF0E024BC
:1031100060610F21601701F099F90020A06107207C
:103120002061002010BD70477047000070B590F816
:103130003C20012A26D0012480F83C40022280F85D
:103140003D2003685A689D6822F070060A68324381
:103150005A600D4B02689A4208D0B2F1804F05D0F8
:103160000A4B9A4202D00A4B9A4204D1496825F090
:1031700080031943916080F83D40002180F83C10A5
:10318000084670BD022070BD002C014000040040C4
:103190000008004010B5040003D094F83D0010B1C1
:1031A00007E0012010BD002084F83C00204600F01C
:1031B0001FF8022084F83D00211D206800F092FFD6
:1031C000012084F8460084F83E0084F83F0084F82B
:1031D000400084F8410084F8420084F8430084F8F9
:1031E000440084F8450084F83D00002010BD000034
:1031F00008B500680B49884212D10B48816941F437
:10320000006181618069002200F400600090114635
:103210001920FEF7F1FFBDE808401920FEF7DEBFD8
:1032200008BD0000002C01400010024090F83D1045
:10323000012901D001207047022180F83D1001686A
:10324000CA6842F00102CA6000680B49884208D08F
:10325000B0F1804F05D00949884202D00849884220
:1032600004D1816801F00701062903D0016841F00B
:103270000101016000207047002C01400004004063
:103280000008004070B5044690F83C000025012875
:1032900017D0012684F83C60022084F83D002068A5
:1032A000826822F0770222F47F4282600868502808
:1032B00038D00DDC20284FD005DC90B3102811D178
:1032C0004AE0022070BD302846D040280AD13BE0B9
:1032D00060282FD070280DD0B0F5805F03D0B0F5F6
:1032E000005F12D0012584F83D60002084F83C0086
:1032F000284670BDCB68D1E90121206800F02EFF7F
:103300002068816841F0770109E0CB68D1E90121AB
:10331000206800F023FF2068816841F480418160CB
:10332000E1E719E0CA684968206800F029FF5021E8
:10333000206806E0CA684968206800F032FF602112
:10334000206800F015FFCEE7CA684968206800F0E1
:1033500017FF40212068F4E7226801461046F0E795
:1033600070472DE9F04104460068C66805694FF0D2
:103370000007A90713D5B10711D5F91E0161012076
:103380002077206880698007204602D0FFF7E8FF99
:1033900004E000F07EF8204600F07CF8277768070C
:1033A00016D5700714D521686FF00400086102205B
:1033B00020772068806910F4407F204602D0FFF714
:1033C000CFFF04E000F065F8204600F063F82777AF
:1033D000280715D5300713D521686FF0080008615C
:1033E000042020772068C0698007204602D0FFF7BC
:1033F000B7FF04E000F04DF8204600F04BF82777C7
:10340000E80616D5F00614D521686FF010000861A3
:10341000082020772068C06910F4407F204602D041
:10342000FFF79EFF04E000F034F8204600F032F889
:103430002777E80708D0F00706D021686FF0010071
:103440000861204600F028F8280608D5300606D581
:1034500021686FF0800008612046FFF764FE68066F
:1034600008D5700606D521686FF040000861204637
:1034700000F04CF8A8060AD5B00608D521686FF010
:10348000200008612046BDE8F041FFF74DBEBDE8D1
:10349000F08170477047000038B5006817498842CE
:1034A0002BD1174CA08C401CA084E078401CE0700D
:1034B000A07910B1401EA07112E01148104A3030BE
:1034C00001230168D21D21F00101016000784E2125
:1034D000C043E0714FF47A7000900A48FEF758FD3F
:1034E0006179094819B1491E6171012200E0002289
:1034F000BDE838404021FEF77CBC38BD002C0140BF
:103500008C0000204C050020000C01407047FEE7B5
:1035100001684A69D24352050FD46FF480624A6150
:10352000002140F8301F202242738173026942F06B
:1035300004020261017301207047002070470000FF
:10354000F8B50446C06A1E460D461746082807D03F
:10355000012805D010F5803F02D0206B122804D13D
:103560002068016841F480710160134600224FF029
:1035700001112046009600F05DF840B12068006817
:10358000C00502D54FF4007020640320F8BD206907
:10359000B0F5804F0ED00620216800EAD51040F02B
:1035A000F000086133463A460B49204600F08AF89D
:1035B00078B902E005F0FE0000E0E8B22168086199
:1035C000054933463A46891F204600F07BF800281B
:1035D000DCD00120F8BD00000800010070B51646DF
:1035E0000D4604461EE02046FFF792FF08B1012079
:1035F00070BD681C16D0FEF701FC801BA84200D8E5
:1036000085B920684069C04340070BD5002044F8C5
:10361000300F20216173A073216941F020012161E5
:103620002073E4E720684069C0434007DBD40020F2
:1036300070BD00002DE9F047984617460D46044638
:10364000C1F30746DDF820902AE000BFB8F1FF3F44
:1036500026D0FEF7D3FBA0EB0901414502D8B8F113
:10366000000F1DD12068012E16D0806925EA0000C8
:103670000004000C12D00020B84211D1002044F800
:10368000300F20216173A073216941F02001216175
:1036900020730120BDE8F0874069E7E70120EBE7F0
:1036A0002068012E0AD0806925EA00000004000C81
:1036B00006D00020B842C9D00020EBE74069F3E70C
:1036C0000120F7E72DE9F047984616460D460446D7
:1036D0004FF000094FF0200AC1F3074723E02068AC
:1036E0004069C043400515D42068016841F4007169
:1036F000016021686FF480604861C4F8309084F8FC
:103700003DA084F83E90216C41F00401216484F8CE
:103710003C9021E0701C06D0FEF770FBA0EB080087
:10372000B04203D816B1012F1FD021E02068012F2D
:1037300015D0806925EA00000004000C18D000BFF5
:1037400044F8309F84F80DA084F80E90216941F070
:103750002001216184F80C900120BDE8F0874069C8
:1037600025EA00000004000CEAD12068406901E06D
:103770002068806925EA00000004000CAFD1ECE766
:1037800070B516460D4604461EE02046FFF7C0FE03
:1037900008B1012070BD681C16D0FEF72FFB801BFE
:1037A000A84200D885B920684069C04300060BD5FF
:1037B000002044F8300F20216173A073216941F08B
:1037C000200121612073E4E720684069C0430006BE
:1037D000DBD4002070BD000008B51A492A224FF43E
:1037E000F0734A812B228A812C220A8188714FF43E
:1037F000A07228B101280AD002280FD0032814D0C3
:103800000A804B80362000F087F90FA013E00B8070
:103810004A80362000F080F90CA00CE00A804B8032
:10382000362000F079F90AA005E00B804A803620A6
:1038300000F072F907A0012100680090684600F0CE
:103840007FF908BDEC0000204800000028000000BF
:1038500088000000E80000001FB5044600F01AF9D7
:1038600000F002F9012000F057F90A20FEF77CF879
:10387000F02000F051F965A0012100680090684631
:1038800000F05EF9F02000F047F961A00121006826
:103890000090684600F054F9362000F03DF95DA034
:1038A000012100680090684600F04AF93A2000F0D3
:1038B00033F959A0012100680090684600F040F9F2
:1038C000B02000F029F955A0012100680090684659
:1038D00000F036F9B62000F01FF951A0022100686F
:1038E0000090684600F02CF9B52000F015F94DA0C5
:1038F000042100680090684600F022F9B12000F031
:103900000BF949A0022100680090684600F018F900
:10391000B42000F001F9002000900121684600F079
:103920000FF9B72000F0F8F840A0012100680090DE
:10393000684600F005F9C52000F0EEF83CA0012132
:1039400000680090684600F0FBF8E42000F0E4F81E
:1039500038A0012100680090684600F0F1F8E820E6
:1039600000F0DAF834A1D1E90001CDE90001082125
:10397000684600F0E5F8C22000F0CEF8A72000F07D
:10398000CBF8E02000F0C8F82DA10FC98DE80F009A
:103990000E21684600F0D4F8E12000F0BDF82CA11B
:1039A0000FC98DE80F000E21684600F0C9F83620D7
:1039B00000F0B2F82AA0012100680090684600F0EB
:1039C000BFF8F02000F0A8F810A0012100680090D6
:1039D000684600F0B5F8F02000F09EF821A0012123
:1039E00000680090684600F0ABF8132000F094F8EF
:1039F000112000F091F8292000F08EF82046FFF702
:103A0000EBFEBDE81F4000F07FB80000C3000000DF
:103A10009600000068000000050000008000000023
:103A2000000200000203000480100000C600000035
:103A30002400000031000000408A00002919A5334D
:103A4000F0091312122B3C444B1B18171D210000C8
:103A5000F009130C0D273B444D0B17171D210000D7
:103A6000EC0000006900000070B5094D4FF480546F
:103A7000002221462846FEF7BCF90520FDF774FF19
:103A800021462846BDE870400122FEF7B2B9000089
:103A9000000C014000224FF400410148FEF7A9B993
:103AA000000801402DE9F843164F06469846144693
:103AB0000D46B87A00F030F8300A8DF800008DF825
:103AC0000160200A8DF802008DF803400421684649
:103AD00000F036F8387B00F01FF8280A8DF8000057
:103AE0008DF801504FEA18208DF802008DF8038000
:103AF0000421684600F024F8387ABDE8F84300F065
:103B00000BB80000EC0000200122D1030148FEF7B1
:103B100070B900000008014001B500224FF4805147
:103B20000548FEF766F94FF0FF3301226946034866
:103B3000FFF73AF908BD000000080140B405002075
:103B400070B50C460546012211030648FEF751F9EF
:103B500022462946BDE870404FF0FF330248FFF788
:103B600023B9000000080140B40500202DE9F0470A
:103B700086B000254148009501950295039581691D
:103B800041F010018161816901F0100104918169A6
:103B900041F020018161816901F020010491816976
:103BA00041F004018161816901F00401049181699E
:103BB00041F0080181618069DFF8C49000F00800DD
:103BC0000490002249F210014846FEF712F9012242
:103BD00080214846FEF70DF9DFF8A8A000224FF437
:103BE00082515046FEF705F90124CDE900456946AA
:103BF00048460294FEF708F80820CDE9000569461A
:103C000048460295FEF700F848F21000CDE900049E
:103C10000327CDE9024769464846FDF7F5FF4FF413
:103C2000845002268DE8710069464846FDF7ECFF96
:103C30004FF40860CDE90005694602945046FDF74F
:103C4000E3FF4FF48058CDE90084CDE9024769468F
:103C50005046FDF7D9FF01AACDF8008082E8700038
:103C600069464846FDF7D0FF40208DE8710069465F
:103C70005046FDF7C9FF06B0BDE8F08700100240CE
:103C800000080140000C01400B480A494FF4007243
:103C900001604FF48271416000218160C160016167
:103CA000C0E90512C1610162416281620A21C162FB
:103CB000FEF7D0BF00380040B405002010B586B034
:103CC00000241348009401940294039404940F492F
:103CD0000594016040F2CF21C0E9011440F2E731C0
:103CE000C0E9031444618461FFF754FA4FF4805033
:103CF000009069460648FFF7C5FA049404A90448F1
:103D00000594FFF713FA06B010BD0000002C014027
:103D10000C060020FEE7FEE770B5044601831D4651
:103D2000104604F0A5FA034904F0ACF9206065835D
:103D300070BD000000007A447047010901EB810169
:103D400000F00F0000EB4100C0B27047002102E01C
:103D50000A38C0B2491C0A28FAD2090740EA1160A1
:103D600070472DE9F04104460025C07B627BA37BB0
:103D700042E0012A16D0032A14D0052A12D0072ABD
:103D800010D0082A0ED00A2A0CD00C2A0AD0042AF5
:103D900010D0062A0ED0092A0CD00B2A0AD0022AEB
:103DA0000DD028E01F2B0CD30C2A05D1012213467D
:103DB000401C20E01E2B04D30123521C1BE01C2BB3
:103DC00002D203F1010316E011D183B29E0710D194
:103DD0006426B3FBF6F706FB173636B94FF4C87600
:103DE000B3FBF6F706FB17331BB91D2303E01D2BAE
:103DF00001D1032201236D1C8D42BAD3D1B2E073ED
:103E00006173DAB2A27300F05CF82073BDE8F08150
:103E100070B50446FDF7F2FF05464FF47A7606E0EA
:103E2000FDF7ECFF401BB04201D9032070BD2068B4
:103E300040688006F4D52068416841F01001416077
:103E4000002070BD70B504460068416821F0100183
:103E50004160FDF7D3FF05464FF47A7607E000BFD7
:103E6000FDF7CCFF401BB04201D9032070BD206894
:103E700040688006F4D5002070BD0000034801684A
:103E800041F0010101600248FEF724BDB8000020A6
:103E9000A00500200168086A496A89B241EA004029
:103EA0007047006881698AB2C1698BB2816989B241
:103EB0008A4203D0C06961F31F40704743EA024061
:103EC0007047F0B56424C1EBC1030927A50007269C
:103ED00003EB01130329B3FBF7F100F5FA6011447A
:103EE00001440AD2401EB0FBF4F201EB9001B0FB9A
:103EF000F5F0891A0844001D08E0B0FBF4F201EB6C
:103F00009001B0FBF5F0891A0844801CB0FBF6F173
:103F100006FB1100C0B2F0BD70B50D460646002488
:103F2000FFF776FF48B93168280C08623168A8B2FB
:103F300048623046FFF786FF00B10124204670BD7D
:103F400070B50D4606460024FFF762FF48B9316898
:103F5000280C88613168A8B2C8613046FFF772FF4B
:103F600000B10124204670BD024602208A4200DDD5
:103F70000120002A00DC00207047F8B515460E46E7
:103F80000B46009204460122022100F011F840B9CC
:103F90003346002280212046009500F009F80028D1
:103FA00004D0606D40F0200060650320F8BD000083
:103FB0002DE9F8431E46914688460446089DFDF7C4
:103FC0001DFF401B351AFDF719FF074625480068FD
:103FD000C0F3CB30684338E0701C37D0FDF70EFFDC
:103FE000C01BA84203D215B1009860B32CE0206832
:103FF000416821F0E00141606068B0F5827F0BD13B
:10400000A068B0F5004F02D0B0F5806F04D12068F1
:10401000016821F040010160A06AB0F5005F09D19C
:104020002068016821F4005101602068016841F4B2
:1040300000510160012084F85100002084F85000F4
:104040000320BDE8F8830025401E009020688168A9
:1040500038EA010004D000214945BDD10020F0E735
:104060000121F9E7E80000207047FEF75FB870B55E
:1040700094B028216846FCF78EFA14210AA8FCF7B0
:104080008AFA00240F9409200125109400901194BD
:1040900012944FF4803004950695CDE90104022670
:1040A000CDE907604FF4E01009906846FEF780FA0A
:1040B0000F20CDE90A06A802CDE90C4002210AA88A
:1040C0000E94FEF799F96802CDE90F500FA8FEF79C
:1040D0001DF914B070BD70470148FFF742B90000E8
:1040E0000C060020F0B50268194B1A4C1A4D4FF01F
:1040F0008047984205D0B84203D0A04201D0A842E0
:1041000003D122F070064A683243984205D0B84283
:1041100003D0A04201D0A84203D122F44074CA685F
:1041200022434C6922F08002224302608A68C26204
:104130000A688262984201D10969016301214161E3
:104140000169C90703D0016921F001010161F0BDD6
:10415000002C0140000400400008004010B58468B5
:1041600042EA032224F47F440A432243826010BDC2
:10417000826822F070020A4342F0070181607047B2
:1041800010B5036A046A24F001040462846924F00F
:10419000F00444EA021423F00A020A438461026232
:1041A00010BD10B5036A046A24F010040462846927
:1041B00023F0A00324F4704444EA023243EA0111DC
:1041C0008261016210BD00002DE9F04104462048E3
:1041D000204A258B30F8110032F8111001EB8101D3
:1041E000C0EB410006B275433046A56004F028F8E4
:1041F000216804F051F8616803F0E2FE0746606050
:10420000208A301A01B2608B4843C4E9030604F0E7
:1042100017F80646284604F013F8394603F0D0FE96
:10422000314603F0CDFE03F0EFFF0021606164280A
:1042300002DD6E20606102E0002800DA6161642D19
:1042400002DA15F1320F00DC6160207DBDE8F081FB
:104250007C060020A6060020FEE700002DE9FE4FA8
:104260000C46054600F0AEF84FF00009C8464F4630
:104270004FEA090600F09AF870B37F1C4FF0FF3A3E
:10428000FFB25346012246494648FEF78DFD444998
:10429000022301AA491C4348CDF800A0FEF737FECF
:1042A0003F4953460122491E3E48FEF77DFD3C49E9
:1042B000022302AA491C3B48CDF800A0FEF727FEC6
:1042C000BDF80800761C41BABDF80400F6B240BA49
:1042D00089448044102ECDD300F08EF8102F02D2E6
:1042E0000020BDE8FE8F4FEA191240F2A46047F6A5
:1042F0001811824201D2024602E08A4200D90A46DF
:104300004FEA18134FF4FA6147F60C308B4201D292
:104310000B4602E0834200D90346234847F274214A
:1043200047F23C3687792FB1012F0AD0022F21D0D6
:10433000032F27D00788A2F2A4625743B7FBF1F1FD
:1043400006E00788A2F2A4627A43B2FBF1F1791A7F
:1043500029804088A3F5FA6300FB03F1B1FBF6F175
:10436000401A208081B228884FF47842FDF7C4F9C2
:104370000120B6E70788A2F2A4627A43B2FBF1F10A
:10438000791A05E00788A2F2A4625743B7FBF1F15E
:1043900029804088A3F5FA635843B0FBF6F0E0E7C4
:1043A000C7AE0008B4050020EC00002010B50821BD
:1043B0000348FDF719FD08B1002010BD012010BD14
:1043C0000008014010B50A48FEF72DFC00280ED168
:1043D00007492820C8610846FEF73CFC002806D1A2
:1043E0000022BDE8104010210248FDF702BD10BDBB
:1043F000B40500200008014010B50848FEF713FC82
:1044000006490020C8610846FEF724FC0122BDE8E9
:10441000104010210248FDF7ECBC0000B40500205C
:1044200000080140490050EAC12018BF04204A0D8D
:1044300018BF40F0010040F2FF72B2EB515F08BFBD
:1044400040F00200012808BF052070470907090E47
:10445000002804DB00F1E02080F80014704700F031
:104460000F0000F1E02080F8141D704730380A2852
:1044700001D20120704700207047000038B50B4C76
:10448000606940F040006061606900F040000090A9
:104490000748FDF744FA07492E220548FDF728FA98
:1044A000616921F04001616138BD000000100240E7
:1044B000C8000020740100202DE9F04FFC4DDFF80A
:1044C000F4A3F94E296889B041F008039AF9001065
:1044D00096F800C04C1C64B204944C1E64B207945D
:1044E000F54CF74FF14A94F900400694F34C3F889D
:1044F000DFF8E083B4F900B0009712780392F14A34
:10450000002702EB81020592EF4AB8F80080DFF83D
:10451000BC9392F800E0CDF80880DFF8B883EC4A4D
:10452000BCF1090FB8F80280CDF804800FD2DFE8A3
:104530000CF005122278FCFBFAF9F80020B10128F2
:1045400006D0022803D103E02B6003F055FB6AE399
:1045500030702B6094E230B1012871D0022804D071
:104560000328F4D104E03770D6E103F02FFC5AE3BE
:1045700001F0D2FF57E30028F5D04FF0FF320128B9
:1045800004D0022808D00328E1D10CE004998AF86D
:104590000010072970DC46E307998AF80010914261
:1045A000D5DA072112E3C44A117003223270A1B197
:1045B000012912D0022913D003291ED004291FD0AB
:1045C000052922D0062923D0072926D0A4F800E007
:1045D0000A206080042030709EE139F8110019E053
:1045E000BEF1030F03D0BEF1020F03D094E1B9F87E
:1045F00004000FE0B9F806000CE0B9F8080009E083
:1046000099F80A108AF80010EBE2B9F80C0001E002
:10461000B9F80E0024F811007EE18AF800702780B6
:10462000B0E1032908DA4FF06E0CA2F800C04FF099
:10463000120CA2F802C010E003D14FF4B46C09E0F0
:1046400024E1052901D0062907D1BEF1020F0CD0C3
:104650004FF4FA7CA2F800C05780082887D2DFE820
:1046600000F0AD070C2E101418224FF0640CF1E787
:1046700034F81100401C0FE013E134F81100401E23
:1046800014E034F811000A3006E034F811000A385A
:104690000CE034F81100323003B224F811301088E5
:1046A000834209DABFE234F81100323803B224F849
:1046B000113050888342F5DC24F81100B3E2DDE9C3
:1046C0000221DFF810820020019BFDF739F8BA467D
:1046D0004FF4FC6B804FCDE901BA78680090B8F8D0
:1046E00002106FF03B0000EB510081B2B8F80020DF
:1046F0006FF0590000EB520080B278A23B68FDF7E2
:10470000C1F86C4890F9000002282CD003283AD058
:1047100005283DD0062841D034F8102029F8102073
:1047200004E056E29DE1F9E0A1E03FE003F060FB28
:1047300098B300BF4FF478414FF6E070CDE9010126
:1047400078680090B8F802206FF0130101EB520175
:10475000B8F800206FF0270000EB520089B280B259
:1047600062A23B687BE058490978032906D00229F8
:10477000D6D134F81010A9F80610D1E734F810108B
:10478000A9F80410CCE734F81010A9F80810C7E70E
:1047900034F81010A9F80C10C2E704E034F8101037
:1047A000A9F80E10BCE7CDE901BA48E030B1012804
:1047B00006D002280CD0032809D112E002200AE713
:1047C0000BF1010000B22080032800DD27802AE2DF
:1047D000ABF1010000B220800028F8DA032020802D
:1047E00021E2DDE90221DFF8EC800020019BFCF7EB
:1047F000A7FFB9464FF4FC6A374FCDE901A97868A5
:104800000090B8F802106FF03B0000EB510081B24D
:10481000B8F800206FF0590000EB520080B22FA2D0
:104820003B68FDF72FF828492078087003F05CF901
:1048300003F0DEFA00287FF47DAFCDE901A97868A6
:104840000090B8F80220142101EB5201B8F80000E2
:104850006FF0090202EB500080B227A23B68FDF71F
:1048600011F84FF47A70FDF77FF80220D6E138B1E5
:1048700001280BD0062202280ED00328A7D13DE044
:104880000220307006988AF8000045E004998AF802
:104890000010062970DCC6E107998AF8001000298B
:1048A00095DA8AF80020BEE18C000020D8000020B4
:1048B000B8000020D0000020DA000020FC0000201A
:1048C000AA000020DC0600208D000020A6060020A3
:1048D0001C000020EC0000200C000020C2C8CACE42
:1048E000CDC0DE20C7C0CFC8D1210000CFCECCC8FC
:1048F000CBCAC021000000004F4B0000042903DA9E
:1049000009EB4100008A04E0CB4800EB4100B0F81D
:10491000860024F8110032702B6084E171B14FF0F1
:10492000320C012910D002290ED0032909D0042904
:104930000AD005290FD0062910D014E04FF4E16CFD
:104940000EE04FF0030C0BE0A2F800C04FF0010C9A
:10495000A2F802C007E04FF47A7C01E04FF0640C4B
:10496000A2F800C05780082895D2DFE800F00B0AB3
:10497000090D0807060496E682E08AE685E680E6E9
:104980007BE675E6052026E6DDE90221DFF8AC824C
:104990000020019BFCF7D4FEBA464FF4FC6BA84FF5
:1049A000CDE901BA78680090B8F802106FF03B00CA
:1049B00000EB510081B2B8F800206FF0590000EB15
:1049C000520080B2AFF2EC023B68FCF75BFF9D48FF
:1049D00090F90000042805DA34F8102009EB4000B3
:1049E000028206E0944A34F8101002EB4000A0F86E
:1049F000861003F0FDF9C8B14FF478414FF6E0702E
:104A0000CDE9010178680090B8F802206FF0130139
:104A100001EB5201B8F800206FF0270000EB5200C4
:104A200089B280B2AFF23C123B6812E0CDE901BA24
:104A300078680090B8F80220142101EB5201B8F810
:104A400000006FF0090202EB500080B2AFF2581282
:104A50003B68FCF717FF4FF47A70FCF785FF0520E1
:104A6000DCE000283FF40CAF012804D002280AD073
:104A7000032807D11AE004998AF80010082901D107
:104A80008AF80070CFE0082030702B6005984088CD
:104A9000208000F1640189B2643811805080B1F542
:104AA000805F02D340F6FF701080ACE0DDE90221A8
:104AB000DFF888B10020019BFCF742FE604C00212A
:104AC0004FF4FC60CDE9010160680090BBF8021072
:104AD0006FF03B0000EB510081B2BBF800206FF09B
:104AE000590000EB520080B2AFF210222368FCF7AD
:104AF000C9FE9AF90000DFF840E181B2A9F80A1076
:104B00008946514A0021002002EB81030EEB810708
:104B100033F810C007EB4008401CC0B2A8F8BEC074
:104B20000228F5D3491CC9B20829ECD32878C0F370
:104B30008001C0F300131943C0F3C010014304D037
:104B400002EB8900408802F0B1FF03F051F9C8B1CF
:104B50004FF478414FF6E070CDE9010160680090B4
:104B6000BBF802206FF0130101EB5201BBF80020EB
:104B70006FF0270000EB520089B280B2AFF29422AE
:104B8000236815E000214FF4FC60CDE90101606865
:104B90000090BBF80220142101EB5201BBF8000089
:104BA0006FF0090202EB500080B2AFF2B42223682A
:104BB000FCF768FE4FF47A70FCF7D6FE02203070E6
:104BC000286840F008002860204801788AF8001022
:104BD00029E030B1012806D002280DD0032822D1C7
:104BE00015E00720F7E40BF1050001B221801088E1
:104BF000814208DD208006E0ABF1050001B2218092
:104C000050888142F6DB208802F050FF0BE00598C7
:104C100021884180002002F049FF07203070286879
:104C200040F0080028603078002802D00849B420FD
:104C3000087009B0BDE8F08F4C010020EC000020A6
:104C40000C000020D0000020DC060020DA0000204C
:104C50009800002030B5104B02EB420433F82420BA
:104C600003EB840392B21D7AD41E2C44A4B290426A
:104C70000BD3A04209D898885B7A80B2C21E1A442E
:104C800092B2814201D3914201D9002030BD034943
:104C90001E200870012030BD0C0100209100002072
:104CA00070B506460020024612E0B45C5FF00003D7
:104CB00080EA040515F0010F4FEA500001D080F0A2
:104CC0008C005B1C6408DBB2082BF1D3521CD2B2FF
:104CD0008A42EAD370BD00002DE9F04FFE48DFF8AC
:104CE000FC83FF4A008885B00F30A8F8000007CA8F
:104CF0008246FC480491934601784FF46162514327
:104D000042788078C2EB021201EB8201F64C084433
:104D100003902068410707D5F44909890029F4A1C7
:104D200001D08B4600E08A4601074FF6E0752BD58F
:104D300020F008002060EF480088FCF7D1FC282212
:104D40000121032002F0B8F92078C0F38001C0F3FC
:104D500000121143C0F3C010014304D0E6A20021A9
:104D60004FF61F0003E0E6A200214FF4FC6001F0C3
:104D7000E5FBE5A20121284601F0E0FBE5A20221C6
:104D800047F6FF7001F0DAFB0022D649E448FDF750
:104D9000FDFD0022E349E248FDF7D1FDE2484FF076
:104DA0000F0CDFF88893A0F800C0CF484FF4784686
:104DB000006841070BD54FF4FC610020CDE90101EB
:104DC000D9F804100091DAA2D9F8003018E0C10631
:104DD00009D50020CDE90105D9F804100091D6A22B
:104DE000D9F800300CE0000610D547F6FF7100201E
:104DF000CDE90101D9F804100091D9F80030D0A212
:104E0000B8F800106046FCF73DFD12E0CDE9015610
:104E1000D9F804100091CCA2B8F800106046D9F877
:104E20000030FCF72FFDCA494FF6FF700880C949D2
:104E30000880B048C84CC9A20088CDE9015060681C
:104E40000090B8F8001078202368FCF71BFDC648D6
:104E5000C449007851F82020C4A1C548FBF7E4F903
:104E60004FF6FF710020CDE9010160680090C04A53
:104E7000B8F80010BE202368FCF704FDB8F8000065
:104E8000A94A293081B2A8F8001023201080B94A1D
:104E90001288D30706D0CDE9015662680092B6A207
:104EA000236819E0530606D5CDE9015662680092E1
:104EB000B7A2236810E0D20506D5CDE90156626895
:104EC0000092B9A2236807E08A4A1288CDE901520C
:104ED00062680092BAA22368FCF7D4FC7F484FF0C6
:104EE00000084FF6FF720188213189B20180CDE9B7
:104EF0000128D9F80420009252460F20D9F800303A
:104F0000FCF7C0FCB448B0F90000B0F57A7F0DDAC8
:104F100003F096F9B14903F0B5F803F025F802461D
:104F20000B46AFA19248FBF77FF90FE040F2F64144
:104F3000884207DA0A2190FBF1F2ABA18C48FBF71B
:104F400073F903E0AAA18A48FBF76EF980480021B3
:104F5000DFF888810088CDE90101D9F804000090CC
:104F6000834AB8F800103720D9F80030FCF78AFCE3
:104F70005E48A1A102887E48FBF756F94FF6FF7AFA
:104F80000021CDE9011AD9F804000090784AB8F858
:104F90000010AF20D9F80030FCF774FCB8F800001E
:104FA000614A293081B2A8F8001023201080714A8C
:104FB0001288930706D5CDE901566268009290A247
:104FC000236810E0120606D5CDE90156626800920A
:104FD00091A2236807E0474A1288CDE9015262682E
:104FE000009293A22368FCF74DFC3C484FF0000868
:104FF0004FF6FF720188213189B20180CDE9012885
:10500000D9F804200092049A0F20D9F80030FCF758
:1050100039FC7148B0F90200B0F57A7F0DDA03F07F
:105020000FF96E4903F02EF802F09EFF02460B4680
:105030006BA14F48FBF7F8F80FE040F2F6418842C9
:1050400007DA0A2190FBF1F267A14948FBF7ECF877
:1050500003E067A14648FBF7E7F83E494FF0000A36
:10506000DFF8C8800988CDE9011AD8F8040000905B
:10507000DFF868903E4A3720B9F80010D8F80030C1
:10508000FCF700FC19485CA142883948FBF7CCF8D2
:105090004FF6FF70CDE901A0D8F804000090344A23
:1050A000B9F80010AF20D8F80030FCF7EBFBB9F8E6
:1050B00000001D4A293081B2DFF83880A9F80010BD
:1050C0001E201080B8F80020CDE9015262680092DD
:1050D0005DA22368C4E00000D8000020A4000020E6
:1050E000CCAE0008B4000020B8000020A6060020C6
:1050F0002D3E0000AA000020D1D2CECF000000003B
:10510000CFD3D1CA00000000CAE5F0F3E2E0ED2EF3
:1051100000000000CDE0EBE0F8F2F3E22E0000002A
:10512000A0050020D1000020A600002014000020CF
:10513000204F4E202000000056454E542000000015
:105140005055524720000000204F464620000000E6
:10515000AC000020AE0000200C000020D0C5C6C866
:10516000CC3A0000240000208D0000202538730078
:10517000540600209C0000202020CFCECCC8CBCAF3
:10518000C020C4C0D2D7C8CAC0204E3120200000E1
:105190002020CFC5D0C5C3D049C220C220CAC0CCB0
:1051A000C5D0492020200000C249C4D549CBC5CD77
:1051B000CDDF20D2C5CCCFC5D0C0D2D3D0C800005F
:1051C00020D2C5CCCFC5D0C0D2D3D0C020C220CA37
:1051D000C0CCC5D0492000007C0600200000204142
:1051E00025332E316624200025356424200000005C
:1051F000202D2D2D202000002533692E3024200065
:105200002020CFCECCC8CBCAC020C4C0D2D7C8CAF9
:10521000C0204E322020000020CFC5D0C5C3D049C9
:10522000C220C220CFD0CEC4D3CAD2492020000091
:10523000D2C5CCCFC5D0C0D2D3D0C020C220CFD011
:10524000CEC4D3CAD2490000202020D2D0C8C2C0C8
:10525000CB49D1D2DC20D0C5C6C8CCD32020200079
:10526000FCF710FBB9F800002130A9F80000BA489B
:105270000078C0F38001C0F3C010014317D0B748D5
:1052800082784178CDE9001203785A46B4A1B94832
:10529000FAF7CAFFB8F80000B64ACDE901506068D5
:1052A0000090B9F800100F202368FCF7EBFAAA4829
:1052B000DFF8C4A20078BAF8081002064FF03C00EC
:1052C00009D5BAF81010B1FBF0F200FB1213B1FBD4
:1052D000F0F2AAA106E0B1FBF0F200FB1213B1FB61
:1052E000F0F2AAA1A348FAF79FFF4FF6FF7B002038
:1052F000CDE9010B606800909E4AB9F80010A52026
:105300002368FCF7BFFAB9F80000213081B2A34846
:10531000A9F80010007801287ED9022802D00328BD
:1053200016D038E09E4803270078000706D5CDE95F
:105330000156606800909BA2236807E0B8F800005F
:105340009CA2CDE90150606800902368502020E0C5
:10535000934802270088420706D5CDE901566068C8
:10536000009098A2236813E080052ED59B48B0F9E1
:105370000420BAF80400CDE9015600EB8000B2EB3E
:10538000400F60680090236801DA95A200E09AA2BD
:105390001E20FCF777FAB9F8001090482131A9F8DF
:1053A000001030F91700B0F57A7F17DA02F048FFE5
:1053B000974902F067FE02F0D7FD02460B46AFF2B6
:1053C000E0116C48FAF730FF1AE0B8F8000091A23B
:1053D000CDE90150606800902368D9E740F2F641BA
:1053E000884208DA0A2190FBF1F2AFF20421614809
:1053F000FAF71AFF04E0AFF208215E48FAF714FF4B
:10540000DFF828B200214FF6FF70CDE90101DBF88B
:1054100004000090574A00E022E0B9F8001037205D
:10542000DBF80030FCF72EFA3AF81720AFF23821FB
:105430005048FAF7F9FE4FF6FF710020CDE901015F
:10544000DBF8040000904B4AB9F80010AF20DBF8FD
:105450000030FCF717FAB9F800002930A9F800006D
:10546000DFF8F4B09BF80000C00625D54C48008852
:10547000000509D5CDE90156606800906CA2B9F825
:1054800000101E20236815E0BAF80A006F4931F8B1
:1054900020306F486FA102693648FAF7C5FEB8F8A8
:1054A0000000344ACDE9015060680090B9F800105E
:1054B0000A202368FCF7E6F9B9F800004F461C30D3
:1054C00081B2A9F80010DFF8D490674899F800205D
:1054D000032A36D29BF80020D20632D5039A022A3C
:1054E0002FD90C2A2DD2614B0A221A7000960088FF
:1054F0003823503882B22820FCF722F999F80000AE
:10550000CDE901560028606800903888236800F1D2
:10551000050081B202D056A2462001E059A24120E6
:10552000FCF7B0F9CDE901566068009038885AA2BE
:10553000233081B26E202368FCF7A4F905B0BDE8E2
:10554000F08FB8F80020009200883823503882B2DB
:105550002820FCF7F5F8F1E7B8000020B40000209F
:1055600025327320253032753A253032753A253090
:105570003275200054060020A6060020202569F57B
:10558000E2EB2E25303269F1E5EA2E00202569E3B1
:10559000EEE42E25303269F5E2EB2E008D0000207E
:1055A0009C000020CFCECCC8CBCAC020C4C0D2D76C
:1055B000C8CAC000C2CECBCEC3C8C920C4C0D2D7CF
:1055C000C8CA200020202020CFCECCC8CBCAC02003
:1055D000C4C0D2D7C8CAC020202020007C0600202A
:1055E000C4C8CC20CDC8C7DCCACEDA20D2C5CCCF47
:1055F000C5D0C0D2D3D0C800C4C8CC20C2C8D1CE78
:10560000CACEDA20D2C5CCCFC5D0C0D2D3D0C80044
:105610000000204120202020202020C4C0D2D7C854
:10562000CA20C4C8CCD32020202020001400002091
:105630002020CDC520CFD0C0D6DEDD20C2C5CDD242
:10564000C8CBDFD2CED0202000000000DC06002036
:1056500034000020253132733A2025346920EEE1F0
:105660002FF5E2EB2E000000EC000020910000205E
:10567000C7C0CAD0C8C9D2C520C7C0D1CBDBCDCA2C
:10568000C8000000C2DBC4CAD0C8C9D2C520C7C088
:10569000D1CBDBCDCAC80000E2E5EDF2E8EBFFF6C6
:1056A000FBFA21002DE9F04F7B487C4D87B0008844
:1056B0007C4F0A3028807A487B4E4FF6E0790168AB
:1056C0000A072FD5794C21F0080101602088FCF7EA
:1056D00007F820884C46CDE9019078680090308822
:1056E00073A23C3080B229883B68FCF7CBF82822B3
:1056F0000121042001F0E0FC71A200211F2000F034
:105700001DFF71A20121204600F018FF70A20221A6
:105710004FF61F0000F012FF6EA2032147F6FF7044
:1057200000F00CFF2888B8461730288000244FF678
:10573000FF7A48F2304B0120A040C7B2664867A10B
:1057400050F824206648FAF76FFD621C65A103A893
:10575000FAF76AFD03A96248FAF711FF6348005798
:10576000002801DA62A102E001280BD062A15C48A6
:10577000FAF705FF624890F90000844204D1002046
:10578000514603E05FA1F2E750460021CDE9010157
:10579000D8F8040000903088514A0A3080B2298835
:1057A000D8F80030FCF76EF858480078384201D03D
:1057B000484600E05846009030881223C83080B236
:1057C0001E222988FBF7BCFFACB9514851A10278D1
:1057D0004348FAF729FD3548414A0188CDE901914E
:1057E000D8F80400009030882988F03080B2D8F8CA
:1057F0000030FCF747F82888641C1730E4B2288092
:10580000072C98D380B2173081B229800020CDE9CF
:1058100001A0D8F80400009030885746283044464C
:1058200080B23EA2D8F80030FCF72CF801213E48A7
:10583000FCF7DAFA58B358460090308812239630B5
:1058400080B21E222988FBF77BFF288837A21730F9
:1058500081B229800020CDE9017060680090308815
:105860002368283080B2FCF70DF880213248FCF71D
:10587000BBFA70B15846009030881223963080B23F
:105880001E222988FBF75CFF07B0BDE8F08F484671
:10589000D2E74846EFE70000D8000020A40000202F
:1058A000B80000200C000020A6000020AA00002064
:1058B000D1D2C0CD20C2C8D5CEC4DBC2000000000A
:1058C000C2E8F5FBE4000000C2E8E1FBF0000000E4
:1058D0002B0000002D000000700000202537730011
:1058E00054060020204E25753A200000C0000020FC
:1058F0004155544F00000000204F46460000000074
:10590000D0000020204F4E2000000000BC000020EE
:10591000940000202533752025250000C2D5DBC466
:10592000204E313A0000000000080140C2D5DBC41F
:10593000204E323A00000000000C01402DE9F04FEB
:105940007648774D87B00088764E288005203080D5
:10595000754801680A0722D521F0080101607348E3
:105960000088FBF7BDFE28220121042001F0A4FBE2
:105970006FA200211F2000F0E1FD4FF4FC646EA235
:105980000121204600F0DAFD6CA20221204600F041
:10599000D5FD6BA203214FF6E07000F0CFFD288803
:1059A0004FF0FF340A302880DFF89CA14FF6FF79D2
:1059B000DFF898B1DFF89881664F12E0601C10D0D4
:1059C000032C14D0042C23D0052C2AD0062C40D034
:1059D000072C5AD09AF80000022863D003286AD016
:1059E0006BE09AF800105BF821205BA150E05F4863
:1059F0003C210089B0FBF1F2B0FBF1F301FB120294
:105A00005B4800925BA1C2686048FAF70DFC42E077
:105A1000564841895E4830F8213055485DA10269F9
:105A20005AE05248808900285FD09AF80010022975
:105A300009D002F01DFC00BF02F096FACDE900018A
:105A40004B48426916E002F013FC574902F01AFB7A
:105A5000F2E74648C089002847D09AF8001002298A
:105A60000DD002F005FC00BF02F07EFACDE9000186
:105A70003F4882694DA14548FAF7D6FB0BE002F09A
:105A8000F7FB494902F0FEFAEEE73948C2694BA13B
:105A90003E48FAF7C9FB98F90000844227D100215B
:105AA000484626E0022C08D10320009045A103A817
:105AB000FAF722FD09E0022C12D02D48009450F88C
:105AC000242043A103A8FAF7AFFB2848009930F837
:105AD000113053B103AA40A12C48FAF7A5FBDAE72D
